:020000040800F2
:100000005819002045010008571600087B15000804
:1000100055160008B30200088D1C000800000000FF
:100020000000000000000000000000006D17000844
:10003000DD02000800000000BD1600084D18000891
:100040005F0100085F0100085F0100085F01000810
:100050005F0100085F0100085F0100085F01000800
:100060005F0100085F0100085F0100085F010008F0
:100070005F0100085F0100085F0100085F010008E0
:100080005F0100085F0100085F0100085F010008D0
:100090005F0100085F0100085F0100085F010008C0
:1000A0005F0100085F0100085F0100085F010008B0
:1000B0005F0100085F0100085F0100085F010008A0
:1000C0005F0100085F0100085F0100085F01000890
:1000D0005F010008611C00085F0100085F01000863
:1000E0005F0100085F0100085F0100085F01000870
:1000F0005F0100085F0100085F0100085F01000860
:100100005F0100085F0100085F0100085F0100084F
:100110005F0100085F0100085F0100085F0100083F
:100120005F0100085F0100085F0100085F0100082F
:10013000DFF80CD000F09CF800480047B924000814
:10014000581900200648804706480047FEE7FEE7AA
:10015000FEE7FEE7FEE7FEE7FEE7FEE7FEE7FEE777
:10016000AF18000831010008202A04DB203A21FAE8
:1001700002F00021704721FA02F3D040C2F12002C0
:10018000914008431946704740EA01039B0703D09A
:1001900009E008C9121F08C0042AFAD203E011F8C6
:1001A000013B00F8013B521EF9D27047D2B201E088
:1001B00000F8012B491EFBD270470022F6E710B56C
:1001C00013460A4604461946FFF7F0FF204610BDC5
:1001D00030B505462A460B4612F8010B13F8014BC1
:1001E00008B1A042F8D01CB1002802D06D1CF1E784
:1001F000284630BD30B504460020034600E05B1CB5
:10020000934203D2E05CCD5C401BF8D030BD2DE9B9
:10021000F05F0546002092469B468846064681468A
:1002200040241BE02846414647462246FFF79CFFF4
:1002300053465A46C01A914110D3114618462246D9
:1002400000F028F82D1A67EB01084F4622460120DE
:10025000002100F01FF817EB00094E41201EA4F109
:100260000104DFDC484631462A464346BDE8F09F9C
:10027000064C074D06E0E06840F0010394E80700F3
:1002800098471034AC42F6D3FFF756FFD425000848
:10029000F4250008202A04DB203A00FA02F10020AD
:1002A00070479140C2F1200320FA03F319439040B4
:1002B0007047FEE730B504460020651804E000BF33
:1002C00014F8011B01F0D2FCAC42F9D3002101F07B
:1002D000CDFCBDE83040002101F0C8BC70470000F3
:1002E00000B585B072B600F033FA00210F480091D6
:1002F0000191026802924068CDE9030104A96846B1
:1003000000F088F950B10AA0049901F03DFE00F018
:10031000D5F962B64FF0FF3005B000BD0DA001F079
:1003200033FE00F0CBF962B60020F5E714000020A0
:100330004572617365204572722061742070616737
:100340006520616464726573733A203078256C7837
:100350000D0A00004572617365204F4B0D0A0000C5
:1003600072B6FEE706490020C8610648016941F0FF
:1003700004010161016941F0400101617047000021
:10038000F000002000200240064A0021D161064909
:100390000A6942F002020A614861086940F04000BF
:1003A00008617047F000002000200240044B00224A
:1003B000DA61044A136943F0010313610180704755
:1003C000F00000200020024014480022C168CB0643
:1003D000134904D5CA6942F00202CA611022C368F7
:1003E0005B0705D5CB6943F00103CB6142F0040202
:1003F000C369DB0707D0CB6943F00403CB61C16954
:1004000021F00101C161A2F58071013901D0C26002
:100410007047C16921F00101C161704700200240AD
:10042000F000002070B5054600F0A8FA0646114C11
:1004300009E0681C07D025B100F0A0FA801BA84293
:1004400001D9032070BDE068C007F2D1E0688006E2
:1004500001D52020E060E068C00605D4E069C0074F
:1004600002D1E068400703D5FFF7AEFF012070BD61
:10047000002070BD0020024010B590F8211000222D
:10048000022905D00421816380F82020012010BDBD
:1004900001680B6823F00E030B6001680B6823F002
:1004A00001030B6090F84030C46B012101FA03F3A3
:1004B000636080F8211080F82020104610BD0000F5
:1004C0002DE9F05F90F821100024022903D00421C7
:1004D0008163012485E001680A6822F00E020A6047
:1004E00001680A6822F001020A603F4E3E4FB215D1
:1004F000DFF8F4C0DFF8F090DFF8ECA0DFF8E8B048
:10050000DFF8E4E00168783F13011502ACF1640CF8
:10051000A9F15009AAF13C0AABF1280BAEF1140E77
:100520004FF48018B14227D9B9420ED0614512D09C
:1005300049451DD0514518D0594518D0714501D1B4
:10054000424615E0294EB14201D1012210E0274E6A
:100550001436B14201D110220AE0244E2836B142AD
:1005600006D0224A3C32914201D11A4600E02A4686
:100570001E49091F0A602BE0B94213D0614517D00C
:10058000494522D051451DD059451DD0714501D155
:1005900042461AE0B14202D14FF0807215E0134E8C
:1005A000B14201D1012210E0104E1436B14201D106
:1005B00010220AE00D4E2836B14206D00B4A3C32DA
:1005C000914201D11A4600E02A46074980394A6023
:1005D000012180F82110002180F82010416B01B129
:1005E00088472046BDE8F09F800002400804024092
:1005F00070B5044600F0C2F90546601C02D00448FC
:100600000078044400F0BAF9401BA042FAD370BD50
:10061000040000202DE9F047054626480F46012634
:10062000017E01290FD00121814601762868DFF87B
:1006300088804CF25034022808D0A2462046FFF7AA
:10064000F1FEA8B131E00220BDE8F0872046FFF7B7
:10065000E9FE08BB0120FFF785FE2046FFF7E2FE1A
:10066000D8F81010064621F00401C8F810101CE05C
:100670004FF0FF303860AC6811E02046FFF784FE91
:100680005046FFF7CFFED8F81010060021F0020107
:10069000C8F8101001D03C6007E004F50064D5E90B
:1006A000020100EBC120A042E7D8002189F8181010
:1006B0003046C9E7F00000200020024003480169ED
:1006C00041F08001016100207047000000200240DD
:1006D0002DE9F05F07461C4888460024017E154638
:1006E0001E46012909D00121814601764CF2503A7B
:1006F0005046FFF797FE18B122E00220BDE8F09FB8
:10070000012F02D0022F00D00427D346DFF83CA0EF
:10071000220128463146FFF727FD81B208EB44004D
:10072000FFF744FE5846FFF77DFEDAF8102022F06E
:100730000102CAF8102018B9641CE4B2BC42E7D325
:10074000002289F81820D9E7F0000020002002409C
:10075000064900200A69120607D5054A4A60054A7B
:100760004A600969090600D501207047002002404F
:1007700023016745AB89EFCD2DE9F84FDFF8C8912C
:100780000024A9F1040B23460F2709F1040AABF159
:10079000040ED1E00125A54006EA0502AA4276D161
:1007A000DFF8A8C14E68A6EB0C0866452BD00DDC1F
:1007B000032E34D005DC36B3012E19D0022E2FD1F2
:1007C0001BE0112E16D0122E2AD119E0B8F5881F81
:1007D00019D006DCB8F5803F15D0B8F5801F1FD1C1
:1007E00011E0B8F5001F0ED0B8F5041F18D10AE0CB
:1007F000CB6815E0CB681B1D12E0CB6808330FE017
:10080000CB680C330CE08B682BB1012B4FF0080345
:1008100003D0456104E0042302E0056100E0002309
:10082000FF2A01D8064601E000F104064FEA8405DC
:1008300001D9A5F12005D6F8008007FA05FC28EAC1
:100840000C0803FA05F548EA0508C6F800804D686B
:10085000ED0070D53E4DAE6946F00106AE61AD6962
:1008600024F0030605F0010500953A4D06EB050C52
:10087000DCF80850A607360F07FA06F825EA08053F
:10088000DFF8D480404503D14FF0000825E052E066
:10089000DFF8C880404502D14FF001081DE0DFF8C5
:1008A000C080404502D14FF0020816E0DFF8B48066
:1008B000404502D14FF003080FE0DFF8AC8040451F
:1008C00002D14FF0040808E0DFF8A080404502D1D3
:1008D0004FF0050801E04FF0060808FA06F848EA6C
:1008E0000508CCF808804D68D9F80060ED024D4647
:1008F00001D5164300E096432E604D68DAF800609B
:10090000AD02554601D5164300E096432E604D6872
:10091000DBF80060AD035D4601D5164300E0964369
:100920002E604D68DEF80060ED03754601D5164374
:1009300000E096432E60641C0A681646E2407FF48D
:1009400029AFBDE8F88F0000080401400000111035
:10095000001002400000014000080140000C01406E
:10096000001001400014014000180140001C01402B
:100970000AB1016170470904FBE700000148806883
:10098000704700000400002002488168027811448A
:100990008160704704000020074810B5016841F0ED
:1009A00010010160032000F075F80F2000F006F838
:1009B00000F024F8002010BD0020024070B50D4D5D
:1009C00004464FF47A712878B1FBF0F00A490968BF
:1009D000B1FBF0F000F0DCFA48B9102C07D200228D
:1009E0002146501E00F036F800206C6070BD0120DA
:1009F00070BD000004000020100000200C4808B565
:100A0000816941F001018161816901F00101009179
:100A1000C16941F08051C161C06900F0805000900F
:100A20000448416821F0E06141F00071416008BD77
:100A30000010024000000140002809DB00F01F0206
:100A4000012191404009800000F1E020C0F8001130
:100A500070470000F0B40E4B1B680C46C3F3022332
:100A6000C3F10705042D00D90425191D072901D25A
:100A7000002300E0DB1E012606FA05F1491E214095
:100A800099409E40761E16403143F0BC01F08CBA6E
:100A90000CED00E0064900F0070208684FF6FF037E
:100AA000184040EA0220034A1043086070470000E3
:100AB0000CED00E00000FA052DE9F0470F460500B7
:100AC00061D0434E306800F00700B84209D2306868
:100AD00020F0070038433060306800F00700B8426B
:100AE00051D128683B4C810712D5400703D5606877
:100AF00040F4E06060602878000703D5606840F447
:100B0000605060606068A96820F0F0000843606091
:100B10002878C00728D06868012810D021680228EA
:100B200010D0890700292EDA616821F00301014302
:100B30006160FFF723FF804641F288390DE02168AC
:100B40008903EFE78901EDE7FFF718FFA0EB080144
:100B5000494502D90320BDE8F0876068696800F064
:100B60000C00B0EB810FEFD1306800F00700B84205
:100B70000BD9306820F0070038433060306800F04F
:100B80000700B84201D00120E5E72878400705D5E5
:100B90006068E96820F4E060084360602878000736
:100BA00006D56068296920F4605040EAC1006060A1
:100BB00000F038F86168084AC1F30311515CC8407D
:100BC0000649086006480068FFF7F8FE0020C2E703
:100BD0000020024000100240BA250008100000204A
:100BE000080000200448054900684968044AC1F328
:100BF0000221515CC84070471000002000100240E4
:100C0000CA2500080448054900684968044AC1F338
:100C1000C221515CC8407047100000200010024003
:100C2000CA2500080E4A51680E4801F00C03042B37
:100C300011D0082B0FD10C48C1F38343C903C05C0A
:100C40000AD55168084AC1F34041921E515C054AD9
:100C50005043B0FBF1F0704704494843704700002F
:100C60000010024000127A00AA25000800093D0089
:100C70002DE9F84F040070D02078C04DC00749D04E
:100C80006868C0F38100012807D06868C0F381005C
:100C9000022809D16868C00306D52868800339D5C1
:100CA00060680028E7D035E06068B0F5803F0BD081
:100CB00010B1B0F5A02F11D0286820F48030286042
:100CC000286820F4802002E0286840F48030286002
:100CD000606890B1FFF752FE06460AE0286840F4CB
:100CE00080202860F0E700BFFFF748FE801B6428E3
:100CF00073D828688003F7D50CE0FFF73FFE06465F
:100D000005E000BFFFF73AFE801B6428F0D8286892
:100D10008003F7D420789A4E80074FF001094FF0F6
:100D2000000839D5686810F00C0F07D06868C0F368
:100D30008100022809D16868C00306D428688007AA
:100D400014D52069012808D110E02069B0B1C6F897
:100D50000090FFF713FE074605E00AE1FFF70EFEDD
:100D6000C01B0228C4D828688007F7D528686169A5
:100D700020F0F80040EAC10028600DE0C6F80080CD
:100D8000FFF7FCFD074604E0FFF7F8FDC01B022853
:100D900023D828688007F7D4207800072CD5794815
:100DA000A169D9B1C0F80090FFF7E8FD074604E05B
:100DB000FFF7E4FDC01B02280FD8686A8007F7D54B
:100DC00071484FF4FA510068B0FBF1F0009000BF99
:100DD0000098411E0091FAD20EE080E0C0F8008039
:100DE000FFF7CCFD074604E0FFF7C8FDC01B022853
:100DF00075D8686A8007F7D42078400760D5E8691D
:100E00000027C00008D4E86940F08050E861E86934
:100E1000012700F0805000905C480168C90513D498
:100E20000168834641F480710160FFF7A7FD8246A7
:100E300006E000BFFFF7A2FDA0EB0A0064284ED831
:100E4000DBF80000C005F5D5E06801280AD008B13C
:100E5000052813D0286A20F001002862286A20F0B3
:100E6000040002E0286A40F001002862E06841F2D4
:100E7000883B98B1FFF782FD82460BE0286A40F07C
:100E800004002862EEE700BFFFF778FDA0EB0A013F
:100E900059455AD8286A8007F6D50CE0FFF76EFD51
:100EA000824605E0FFF76AFDA0EB0A0159454CD8E0
:100EB000286A8007F6D41FB1E86920F08050E86105
:100EC000E06988B36968C1F38101022944D002282E
:100ED000C6F8608004D0FFF751FD044638E034E0E6
:100EE000FFF74CFD074604E0FFF748FDC01B022852
:100EF0002BD828688001F7D4206AB0F5803F05D14F
:100F00006868A16820F4003008436860D4E90801EB
:100F10000843696821F4741108436860C6F860905A
:100F2000FFF72CFD044606E025E000BFFFF726FD95
:100F3000001B022809D828688001F7D51BE000BFF4
:100F4000FFF71CFD001B022802D90320BDE8F88F23
:100F500028688001F4D40EE00128F7D06868226A7E
:100F600000F48031914204D1616A00F4701088422B
:100F700001D00120EAE70020E8E70000001002406D
:100F800000004242800442421000002000700040F5
:100F900010B5401EB0F1807F01D3012010BD4FF08D
:100FA000E02460610F21601700F0FEFF0020A061C7
:100FB00007202061002010BD4FF0E020016921F0E2
:100FC00002010161704770477047000070B5044628
:100FD00020680C3050E8001F21F4907140E80012A6
:100FE000002AF5D12068143050E8001F21F00101DB
:100FF00040E80012002AF5D1206B012809D12068B1
:101000000C3050E8001F21F0100140E80012002AC7
:10101000F5D1206840694FF0200241064FF00000F2
:1010200015D52168143151E8003F23F0400341E811
:101030000035002DF5D1E16B49B109484863E06BFB
:10104000FFF73EFA50B1E06B416B884706E0E08560
:1010500084F8422020632046FFF7B6FF002070BDD1
:10106000D919000870470000F8B5016804460868FF
:10107000CA684B6910F00F0F4FF0000559D003F00C
:10108000010602F49077374365D0C10705D0D1053A
:1010900003D5616C41F001016164410705D5D907B1
:1010A00003D0616C41F002016164810705D5D90765
:1010B00003D0616C41F004016164010707D502F0BF
:1010C0002001314303D0616C41F008016164616C1F
:1010D00000293AD0800604D5900602D5204600F0BB
:1010E000ADFC20684069616CC0F38010090700D432
:1010F00060B3204600F07BFC20684069400621D5A3
:101100002068143050E8001F21F0400140E8001230
:10111000002AF5D1E06BA8B16D494163E06BFFF7A0
:10112000CFF9002811D0E06B416B01B0BDE8F04071
:10113000084783060FD593060DD52046BDE8F84035
:1011400000F07CBC2046FFF78DFFF8BD2046FFF77E
:1011500089FF6564F8BD266B2023012E7CD1C6066D
:101160007AD5D60678D508684868009048694FF067
:101170000206400640D5E16B086840680004000C98
:10118000E8D0A28D8242E5D9E085886920282DD05B
:1011900020680C3050E8001F21F4807140E80012F4
:1011A000002AF5D12068143050E8001F21F0010119
:1011B00040E80012002AF5D12068143050E8001FE2
:1011C00021F0400140E80012002AF5D184F84230B5
:1011D000256320680C3050E8001F21F0100140E822
:1011E0000012002AF5D1E06BFFF746F96663A08D87
:1011F000E18D401A81B22AE0A08DE18D401A81B2C2
:10120000E08D0028A6D00029A4D022680C3252E834
:10121000000F20F4907042E80007002FF5D12068FD
:10122000143050E8002F22F0010240E80027002F80
:10123000F5D184F84230256320680C3050E8002F47
:1012400022F0100240E80023002BF5D1666320460F
:10125000FFF7B9FEF8BDFFE705062BD5150629D522
:1012600094F841002128F5D1A068B0F5805F01D144
:101270002069B0B1206A411C216221680078486071
:10128000E08C401E0004000CE084E3D12068C168BB
:1012900021F08001C1602068C16841F04001C16057
:1012A000D8E7206A0088C0F308004860206A801CE4
:1012B0002062E5E74006CDD55006CBD5CA6820466A
:1012C00022F04002CA6084F8413000F055F9C1E7CD
:1012D000C919000870B5040004D094F84100002535
:1012E00010B106E0012070BD84F84050204600F0A7
:1012F00023F8242084F841002068C16821F40051BB
:10130000C160204600F0FCFB2068016921F4904197
:1013100001612068416921F02A0141612068C168AA
:1013200041F40051C1606564202084F8410084F8D4
:1013300042006563002070BD30B585B00024009484
:101340000194029403940068184988422CD11848EB
:10135000816941F480418161816901F48041049196
:10136000816941F0040181618069124D00F004003F
:1013700004904FF40070009002200190032003902D
:1013800069462846FFF7F8F92815CDE900046946B3
:1013900028460294FFF7F0F9002211462520FFF7B6
:1013A00059FB2520FFF748FB05B030BD0038014050
:1013B00000100240000801402DE9F84F044690F863
:1013C00042009A4616460D46202802D00220BDE86B
:1013D000F88FB5B1AEB100206064222184F84210CC
:1013E0002063FFF7CBFAA6858146E685A0684FF417
:1013F00080582027404501D1206920B12E46002584
:1014000029E00120E3E7002625E04B4600222021C9
:101410002046CDF800A000F0EAFB18B184F8427035
:101420000320D4E726B1A06840451AD038B108E0BF
:1014300020684068C0F3080025F8020B08E0206926
:1014400078B12068406800F07F0000BF06F8010B0B
:10145000E08D401EE085E08D0028D6D184F84270F2
:10146000B5E720684068F1E790F84230202B01D0C2
:101470000220704721B11AB10023036300F09CBB26
:101480000120704770B500680F4988421BD1104C8D
:101490000E4E00256188705C0D2806D00A2804D005
:1014A0007F2907D2491C618005E021B175540748A6
:1014B00000F0D2F8658060883118BDE870400122E4
:1014C0000448FFF7D1BF70BD00380140280000205C
:1014D00000000020A80000202DE9F843044690F801
:1014E0004100984616460D46202802D00220BDE84D
:1014F000F88385B17EB100206064212084F841002A
:10150000FFF73CFAA6848146E684A0682027B0F560
:10151000805F02D003E00120E9E7206910B12E4688
:1015200000250EE000260CE08021204600F05FFB45
:10153000A8B9C6B116F8010B21684860E08C401EBE
:10154000E084E08C4B464FF00002CDF8008000288C
:10155000EAD14FF04001204600F049FB40B184F849
:1015600041700320C3E735F8020BC0F30800E3E73E
:1015700084F841700020BAE77047FEE7094908681F
:10158000A0F10052B2F5803F0AD272B6064A11604D
:10159000BFF34F8FBFF36F8F80F308884868004711
:1015A000704700000080000808ED00E070B586B0CC
:1015B000002417480094019402940394816941F037
:1015C00004018161816901F004010491816941F0A4
:1015D0000801816180690F4E00F00800049000222C
:1015E00001213046FFF7C4F90125CDE900546946D1
:1015F00009480294FFF7C0F80220CDE902400095A7
:10160000694601953046FFF7B7F806B070BD000097
:1016100000100240000C0140000801400C4810B5C9
:101620000A4901604FF4E1314160002181600C22E0
:10163000C160C0E904128161C161FFF74BFE00285F
:1016400003D0BDE81040FEF78BBE10BD003801404E
:10165000A8000020FEE7FEE710B5044600290ED0E2
:1016600007A1FEF7B5FD002809D006A000F08CFC0C
:1016700021460FA000F088FC0F490120087010BD22
:101680004F544100415050A3BACAD5B5BDC9FDBCA5
:10169000B6D6B8C1EEA3ACD7BCB1B8C7D0BBBBC936
:1016A000FDBCB6C4A3CABD2E2E2E0D0A000000003C
:1016B000646174613A2573000000002070472DE9D1
:1016C000F84300240F4606460C6090460121684608
:1016D00000F058F805001FD19DF8000018281FD011
:1016E00006DC01280BD002280BD0042804D104E02A
:1016F000412825D0612823D0012530700CE08024BA
:1017000001E04FF480643070211D4246B01C00F0AF
:1017100039F8050016D0002428463C60BDE8F8835F
:1017200042460121684600F02DF818B99DF80000E6
:10173000182803D001259DF80000DEE70224DCE72D
:101740000225DAE7F178B07881F0FF0188420AD10A
:1017500030190179407900EB01282146301DFEF750
:10176000A9FD4045D8D000240125D5E770470000E9
:1017700001B56423012269460148FFF7ADFE08BDAB
:10178000A800002013460A4601460148FFF714BE90
:10179000A8000020F0B5054600242A7820462346FC
:1017A000302A2ED16A78782A01D0582A29D10224E9
:1017B0001CE000BFA2F14106052E07D9A2F1610786
:1017C000052F03D91136092E04D913E0A2F13007F1
:1017D000092F01D8303A04E0052E01D8373A00E04D
:1017E000573A641C02EB03130B2C04D22A5D002A27
:1017F000E0D103E000202A5D002A01D101200B6026
:10180000F0BD2A5D62B16B2A01D04B2A02D10CB126
:101810009B0205E06D2A01D04D2A04D11CB11B05A5
:1018200001200B600AE0A2F13006092E0CD803EB70
:1018300083036FF02F0606EB43031344641C0B2C49
:10184000DED20128DDD1F0BD0020F0BDFFF79CB84D
:1018500030B58FB028216846FEF7AFFC14210AA8E6
:10186000FEF7ABFC01210804CDE90010002402942E
:1018700002250491CDE907504FF4E0100990684625
:10188000FFF7F6F908B172B6FEE70F20CDE90A05B9
:101890004FF48060CDE90C4002210AA80E94FFF7B6
:1018A0000BF9002801D072B6FEE70FB030BD7047CB
:1018B00008B519A000F068FB23A000F065FB2CA080
:1018C00000F062FB3548FFF781FB4FF4FA742046C5
:1018D000FEF78EFE00200090684600F0D9F9010066
:1018E00012D02FA000F050FB2046FEF781FEBFF380
:1018F0004F8F30480168304A01F4E06111430160C4
:10190000BFF34F8F00BFFDE72CA000F03DFBFFF7BA
:1019100053FBFFF733FEFEE70D0A3D3D3D3D3D3DE8
:101920003D3D3D3D3D3D3D3D3D3D3D3D3D3D3D3DE7
:101930003D3D3D3D3D3D3D3D3D3D3D3D3D3D3D3DD7
:101940003D3D3D0D0A00000020202020202020BD2C
:10195000F8C8EBC9FDBCB6C4A3CABD20B5C8B4FD68
:10196000C9CFCEBBBBFAB7A2CBCD42494E0D0A00C0
:101970003D3D3D3D3D3D3D3D3D3D3D3D3D3D3D3D97
:101980003D3D3D3D3D3D3D3D3D3D3D3D3D3D3D3D87
:101990003D3D3D3D3D3D3D3D3D0D0A00A800002043
:1019A0004F5441204572722C20636F64653A2025A4
:1019B000640D0A000CED00E00400FA054F544120CC
:1019C0004F4B0D0A0000000010B5406A0021C18590
:1019D000C184FFF747FB10BD10B5406A0021C185E7
:1019E000202280F842200163FFF7EEFA10BD016863
:1019F0000C3151E8002F22F4907241E80023002BB3
:101A0000F5D10168143151E8002F22F0010241E8BC
:101A10000023002BF5D1016B012909D101680C319C
:101A200051E8002F22F0100241E80023002BF5D1ED
:101A3000202180F8421000210163704708B590F81A
:101A40004210222901D0022008BD82684FF4805341
:101A50009A4201D1016921B1816A9A421BD04AB1EF
:101A60000AE00268816A5268C2F308020A80816A49
:101A7000891C08E0026972B10268526802F07F02B4
:101A80000A70816A491C8162C18D491E0904090CD2
:101A9000C18503D01BE002685268F1E70168CA689B
:101AA00022F02002CA600168CA6822F48072CA600B
:101AB00001684A6922F001024A61202180F842103F
:101AC00000214163026B012A03D0FFF7DBFC0020F9
:101AD00008BD016301680C3151E8002F22F01002AB
:101AE00041E80023002BF5D101680A68D20602D52F
:101AF0000A6849680091818DFFF765FAE7E7000001
:101B000070B5044600680169E26821F44051114350
:101B100001612169A0680843616908432168CA68B6
:101B200041F20C639A430243CA6020684169A2698A
:101B300021F44071114341611E492068884202D15D
:101B4000FFF760F801E0FFF74DF800EBC00101EB93
:101B50000012606864218000B2FBF0F3B3FBF1F384
:101B60006FF018067343B2FBF0F5B2FBF0F605EB2D
:101B70008305322303EB0515B5FBF1F5B6FBF1F652
:101B800005F0F00505EB0615B2FBF0F6B2FBF0F040
:101B9000B0FBF1F06FF01802504306EB800003EB4E
:101BA0000010B0FBF1F0216800F00F0028448860BD
:101BB00070BD00000038014081628285C28500212D
:101BC0004164222180F84210016921B10168CA688C
:101BD00042F48072CA6001684A6942F001024A61B7
:101BE0000068C16841F02001C160002070472DE904
:101BF000F843984617460D460446089E24E0701C9C
:101C000022D0FEF7BBFEA0EB0800B0421AD8CEB13E
:101C10002068C168490717D5802D15D0402D13D0F5
:101C20000168C94309070FD4016800254068009086
:101C30002046FFF7DCFE0820606484F84050012055
:101C4000BDE8F8830320FBE72068006835EA000060
:101C500004D00020B842D2D00020F1E70120F9E7FB
:101C60000148FFF701BA0000A800002041F480718C
:101C700041F2210240004900CB0500D5401CC303BE
:101C800000D55040CB03F5D580B27047FEE7000089
:101C90002DE9F14F002092B00746009006900646CD
:101CA000814682460390049005908DF840000446DA
:101CB000DFF834B210E100BF4FF00008CDF820800B
:101CC000CBF800A04546CBF804A001E14FF47A72AE
:101CD00009A98648FFF7F3FC60B102287ED0B9F16C
:101CE000000F00D0761C052E79D91820FFF740FD93
:101CF0001820EBE009980026C0B1022810D07B48DC
:101D0000414682787AA000F03FF9784808F0FF0158
:101D10008078814219D07CA000F036F91520D5E0FA
:101D20005FF00600FFF724FD0224D1E078A000F068
:101D30002BF90620FFF71CFD4320FFF719FD4F206C
:101D4000FFF716FD01250024B8E0B8F1000F58D0C8
:101D5000734ADBF8000065491044091DD94680220A
:101D6000FEF712FAD9F800008030C9F800005FEAE7
:101D7000087002D00899884534D1C9F800A0694894
:101D8000D9F804104FF4007200EBC120644900F050
:101D900079FB5A20FEF72CFC6248D9F804104FF466
:101DA000FF6200EBC120604900F05CFB4FF4006271
:101DB0005B495D48FEF71EFA03465A48D9F80410FD
:101DC00000EBC12259A000F0DFF8D9F804004FF46D
:101DD0000061401CC9F80400514801E070E074E063
:101DE000FEF7EBF900990998814201D3081A009097
:101DF0005FF00600FFF7BCFC08F101084FF0010995
:101E000066E050A000F0C0F838480179F1B3002135
:101E100000F20643001D02E05A54401C491C02789F
:101E20000AB14029F8D303F801A0002103AB401CFC
:101E300002E05A54401C491C0278202A01D0102983
:101E4000F7D303F801A00BA91846FFF7A3FC1298DB
:101E50006FF4F0210068C84211D918208DF84000B5
:101E60004FF480142346012210A93A48FFF734FBAF
:101E70002346012210A93748FFF72EFB0524FEF761
:101E80002FFA12980B9901600B9900E00FE0C80936
:101E900008900091400602D00898401C08902EA09F
:101EA00000F072F80620FFF763FC4320A2E72EA0A3
:101EB00000F06AF80620FFF75BFC0125012707E028
:101EC0001820FFF755FC18202CE74320FFF750FCA3
:101ED00055EA04003FF4FAAE57EA04003FF4ECAED2
:101EE00013B02046BDE8F08F1C0000201011002028
:101EF0007061636B3A256420796D6F645F70616314
:101F00006B25640D0A0000002D2D2D3C0D0A0000EC
:101F1000CAFDBEDDB4ABCAE4CDEAB3C90D0A000008
:101F2000100100200080000810090020636E743A40
:101F3000256420616464723A25787265743A256478
:101F40000D0A00004669727374207061636B0D0A9C
:101F500000000000A800002046696C652053697AE3
:101F6000653A25640D0A000046696C652068656164
:101F7000646572207061636B657420697320656DA0
:101F80007074790D0A0000000FB4054B10B503A959
:101F9000044A029800F028F810BC5DF814FB000019
:101FA0004D240008240000200907090E002804DB46
:101FB00000F1E02080F80014704700F00F0000F1FD
:101FC000E02080F8141D704702E008C8121F08C105
:101FD000002AFAD170477047002001E001C1121FAA
:101FE000002AFBD1704700002DE9FF4F8DB00F464E
:101FF0000546002606E025280BD0DDE90F129047A4
:102000006D1C761C28780028F5D111B03046BDE84B
:10201000F08F0024A246A1460122EC4900E00443CF
:1020200015F8013F203B02FA03F00842F7D1287867
:102030002A2810D06FF02F022878A0F1300109294A
:1020400014D80AEB8A0102EB410144F0020400EBD0
:10205000010A6D1CF0E701CF5FEA000A03D544F4E2
:102060000054CAF1000A44F002046D1C28782E289E
:1020700017D115F8010F44F004042A280ED06FF090
:102080002F022878A0F1300109290AD809EB89012B
:1020900002EB410100EB01096D1CF2E757F8049BCC
:1020A0006D1C28786C280FD006DC4C2817D06828C7
:1020B0000DD06A2814D104E0742810D07A280FD1EA
:1020C0000DE044F400140AE044F4801401E044F408
:1020D00040146978814202D104F580146D1C6D1C96
:1020E0002A786E2A1FD00CDC632A31D004DC002A47
:1020F0008BD0582A11D1A3E0642A68D0692A0CD168
:1021000065E0732A2ED004DC6F2A73D0702A04D1C4
:102110009BE0752A6FD0782A6ED01046DDE90F1249
:102120009047761C50E1C4F30250022806D00328E1
:1021300009D0042801CF09D0066045E101CFF1178D
:10214000C0E9006140E101CF06803DE106703BE15E
:1021500017F8040B8DF8000000208DF80100EB4605
:10216000012003E057F804BB4FF0FF3061074FF048
:10217000000102D40DE008F10101884649450FDA5B
:102180008045F8DB1BF808100029F4D108E008F1BD
:10219000010188468142FADB1BF808100029F6D1BC
:1021A000DDE90F23AAEB08008146214600F036F94D
:1021B000304400EB080604E0DDE90F121BF8010BC8
:1021C0009047B8F10108F7D221464846F7E00A21C6
:1021D000C4F302534FF0000B0891022B04D001CF3F
:1021E000C117032B09D00AE0FF1D27F00707F7E806
:1021F000020108E032E01FE020E000B2C117042B2A
:1022000001D140B2C117031E71F1000307DA4FF08C
:10221000000CD0EB0C006CEB01012D2302E0230538
:1022200004D52B238DF82430012303E0E30701D0EC
:102230002023F7E7984658E00A2110E010210EE02D
:1022400010204FF0000B08900CE010214FF0000B15
:1022500044F004044FF00809089103E008214FF00E
:10226000000B0891C4F30253022B04D001CF0021CC
:10227000032B06D006E0FF1D27F00707F7E8020151
:1022800003E080B2042B00D1C0B24FF00008230756
:102290002BD5702A07D0DDF820C08CF0100C5CEA3A
:1022A0000B0C05D00EE040238DF82430012308E00C
:1022B00050EA010306D030238DF824308DF8252014
:1022C00002239846DDF820C08CF0080C5CEA0B0C69
:1022D0000BD150EA010301D1630706D530238DF8F5
:1022E00024304FF00108A9F10109582A04D038A27E
:1022F0000B9208AA0A920BE03AA2F9E75B46089A09
:10230000FDF785FF0B9B9B5C0A9A521E0A92137085
:1023100050EA0102F2D10A98ADEB000000F1200B67
:10232000600702D524F4803401E04FF00109D9455B
:1023300002DDA9EB0B0000E0002000EB0B014144A3
:102340000890AAEB010AE00306D4DDE90F23214639
:10235000504600F063F806444FF0000908E009A970
:1023600011F80900DDE90F12904709F10109761C07
:10237000C145F4DBE0030CD5DDE90F2321465046CF
:1023800000F04CF8064404E0DDE90F1230209047DD
:10239000761C0899481E08900029F5DC08E00A9888
:1023A0000A990078491C0A91DDE90F129047761CC2
:1023B000BBF10001ABF1010BF1DC21465046DDE938
:1023C0000F2300F019F806446D1C1BE609280100D4
:1023D000303132333435363738396162636465669B
:1023E000000000003031323334353637383941425D
:1023F00043444546000000002DE9F0410446002515
:102400001E461746880404D405E039462020B0470C
:102410006D1C641EF9D52846BDE8F0812DE9F04118
:10242000044600251E469046C80301D5302700E02B
:102430002027880404D505E041463846B0476D1C86
:10244000641EF9D52846BDE8F081000013B54FF6AB
:10245000FF73012269460248FFF73EF800981CBD51
:10246000A800002010B5B2F5006F01D9012010BD01
:10247000002302E0C45CCC545B1C9342FAD30020DE
:1024800010BD00002DE9F04115460E460746FEF747
:102490005FF9002409E000BF56F8242007EB84010F
:1024A00000230220FEF714F9641CAC42F4D3BDE80B
:1024B000F041FEF703B90000FEF76EFAFFF7C8F926
:1024C000FFF774F8FFF7AAF80EA0FFF75DFD19A05B
:1024D000FFF75AFD1EA0FFF757FD25A0FFF754FD9B
:1024E0002F4C2E480122618801442E48FEF7BCFF84
:1024F0002078012803D06420FEF77AF8F8E7FFF788
:10250000D7F900000D0A3D3D3D3D3D3D3D3D3D3D82
:102510003D3D3D3D3D3D3D3D3D3D3D3D3D3D3D3DEB
:102520003D3D3D3D3D3D3D3D3D3D3D3D3D3D3D0D0B
:102530000A0000002020202020202041505020B3FD
:10254000CCD0F2D5FDB3A3D4CBD0D0D6D00D0A00D9
:1025500020202020B7A2CBCDD6B8C1EE204F5441C9
:1025600020BDF8C8EBC9FDBCB6C4A3CABD0D0A00A6
:102570003D3D3D3D3D3D3D3D3D3D3D3D3D3D3D3D8B
:102580003D3D3D3D3D3D3D3D3D3D3D3D3D3D3D3D7B
:102590003D3D3D3D3D3D3D3D3D0D0A0028000020B7
:1025A00000000020A8000020010202030405060725
:1025B00008090A0B0C0D0E0F10100000000000009F
:1025C00000000102030406070809000000000102E0
:1025D00003040000F425000800000020280000008B
:1025E000C81F00081C260008280000203019000021
:1025F000D81F0008000000000100000010000000CB
:102600000000000000127A0000800008F0000000C6
:0C261000000000000000000000000000BE
:0400000508000131BD
:00000001FF
